{
  "contractName": "erc20",
  "abi": [
    {
      "inputs": [
        {
          "internalType": "string",
          "name": "_name",
          "type": "string"
        },
        {
          "internalType": "string",
          "name": "_symbol",
          "type": "string"
        },
        {
          "internalType": "uint8",
          "name": "_decimal",
          "type": "uint8"
        }
      ],
      "stateMutability": "nonpayable",
      "type": "constructor"
    },
    {
      "anonymous": false,
      "inputs": [
        {
          "indexed": true,
          "internalType": "address",
          "name": "tokenOwner",
          "type": "address"
        },
        {
          "indexed": true,
          "internalType": "address",
          "name": "spender",
          "type": "address"
        },
        {
          "indexed": false,
          "internalType": "uint256",
          "name": "tokens",
          "type": "uint256"
        }
      ],
      "name": "Approval",
      "type": "event"
    },
    {
      "anonymous": false,
      "inputs": [
        {
          "indexed": true,
          "internalType": "address",
          "name": "from",
          "type": "address"
        },
        {
          "indexed": true,
          "internalType": "address",
          "name": "to",
          "type": "address"
        },
        {
          "indexed": false,
          "internalType": "uint256",
          "name": "tokens",
          "type": "uint256"
        }
      ],
      "name": "Transfer",
      "type": "event"
    },
    {
      "inputs": [],
      "name": "name1",
      "outputs": [
        {
          "internalType": "string",
          "name": "",
          "type": "string"
        }
      ],
      "stateMutability": "view",
      "type": "function"
    },
    {
      "inputs": [],
      "name": "symbol1",
      "outputs": [
        {
          "internalType": "string",
          "name": "",
          "type": "string"
        }
      ],
      "stateMutability": "view",
      "type": "function"
    },
    {
      "inputs": [],
      "name": "decimal1",
      "outputs": [
        {
          "internalType": "uint8",
          "name": "",
          "type": "uint8"
        }
      ],
      "stateMutability": "view",
      "type": "function"
    },
    {
      "inputs": [
        {
          "internalType": "address",
          "name": "tokenOwner",
          "type": "address"
        }
      ],
      "name": "balanceOf",
      "outputs": [
        {
          "internalType": "uint256",
          "name": "",
          "type": "uint256"
        }
      ],
      "stateMutability": "view",
      "type": "function"
    },
    {
      "inputs": [
        {
          "internalType": "address",
          "name": "receiver",
          "type": "address"
        },
        {
          "internalType": "uint256",
          "name": "numTokens",
          "type": "uint256"
        }
      ],
      "name": "transefer",
      "outputs": [
        {
          "internalType": "bool",
          "name": "",
          "type": "bool"
        }
      ],
      "stateMutability": "nonpayable",
      "type": "function"
    }
  ],
  "bytecode": "0x60806040526103e86005553480156200001757600080fd5b5060405162000ba038038062000ba083398181016040528101906200003d919062000212565b600554600360003373ffffffffffffffffffffffffffffffffffffffff1673ffffffffffffffffffffffffffffffffffffffff1681526020019081526020016000208190555082600090805190602001906200009b929190620000d9565b508160019080519060200190620000b4929190620000d9565b5080600260006101000a81548160ff021916908360ff160217905550505050620003f2565b828054620000e79062000344565b90600052602060002090601f0160209004810192826200010b576000855562000157565b82601f106200012657805160ff191683800117855562000157565b8280016001018555821562000157579182015b828111156200015657825182559160200191906001019062000139565b5b5090506200016691906200016a565b5090565b5b80821115620001855760008160009055506001016200016b565b5090565b6000620001a06200019a84620002ce565b6200029a565b905082815260208101848484011115620001b957600080fd5b620001c68482856200030e565b509392505050565b600082601f830112620001e057600080fd5b8151620001f284826020860162000189565b91505092915050565b6000815190506200020c81620003d8565b92915050565b6000806000606084860312156200022857600080fd5b600084015167ffffffffffffffff8111156200024357600080fd5b6200025186828701620001ce565b935050602084015167ffffffffffffffff8111156200026f57600080fd5b6200027d86828701620001ce565b92505060406200029086828701620001fb565b9150509250925092565b6000604051905081810181811067ffffffffffffffff82111715620002c457620002c3620003a9565b5b8060405250919050565b600067ffffffffffffffff821115620002ec57620002eb620003a9565b5b601f19601f8301169050602081019050919050565b600060ff82169050919050565b60005b838110156200032e57808201518184015260208101905062000311565b838111156200033e576000848401525b50505050565b600060028204905060018216806200035d57607f821691505b602082108114156200037457620003736200037a565b5b50919050565b7f4e487b7100000000000000000000000000000000000000000000000000000000600052602260045260246000fd5b7f4e487b7100000000000000000000000000000000000000000000000000000000600052604160045260246000fd5b620003e38162000301565b8114620003ef57600080fd5b50565b61079e80620004026000396000f3fe608060405234801561001057600080fd5b50600436106100575760003560e01c8063242963811461005c57806347c8efa71461008c57806370a08231146100aa578063ab20465d146100da578063cffb51cd146100f8575b600080fd5b61007660048036038101906100719190610456565b610116565b60405161008391906104f8565b60405180910390f35b61009461027f565b6040516100a19190610513565b60405180910390f35b6100c460048036038101906100bf919061042d565b610311565b6040516100d19190610535565b60405180910390f35b6100e261035a565b6040516100ef9190610513565b60405180910390f35b6101006103ec565b60405161010d9190610550565b60405180910390f35b6000600360003373ffffffffffffffffffffffffffffffffffffffff1673ffffffffffffffffffffffffffffffffffffffff1681526020019081526020016000205482111561016457600080fd5b81600360003373ffffffffffffffffffffffffffffffffffffffff1673ffffffffffffffffffffffffffffffffffffffff16815260200190815260200160002060008282546101b391906105dd565b9250508190555081600360008573ffffffffffffffffffffffffffffffffffffffff1673ffffffffffffffffffffffffffffffffffffffff16815260200190815260200160002060008282546102099190610587565b925050819055508273ffffffffffffffffffffffffffffffffffffffff163373ffffffffffffffffffffffffffffffffffffffff167fddf252ad1be2c89b69c2b068fc378daa952ba7f163c4a11628f55a4df523b3ef8460405161026d9190610535565b60405180910390a36001905092915050565b60606000805461028e90610699565b80601f01602080910402602001604051908101604052809291908181526020018280546102ba90610699565b80156103075780601f106102dc57610100808354040283529160200191610307565b820191906000526020600020905b8154815290600101906020018083116102ea57829003601f168201915b5050505050905090565b6000600360008373ffffffffffffffffffffffffffffffffffffffff1673ffffffffffffffffffffffffffffffffffffffff168152602001908152602001600020549050919050565b60606001805461036990610699565b80601f016020809104026020016040519081016040528092919081815260200182805461039590610699565b80156103e25780601f106103b7576101008083540402835291602001916103e2565b820191906000526020600020905b8154815290600101906020018083116103c557829003601f168201915b5050505050905090565b6000600260009054906101000a900460ff16905090565b6000813590506104128161073a565b92915050565b60008135905061042781610751565b92915050565b60006020828403121561043f57600080fd5b600061044d84828501610403565b91505092915050565b6000806040838503121561046957600080fd5b600061047785828601610403565b925050602061048885828601610418565b9150509250929050565b61049b81610623565b82525050565b60006104ac8261056b565b6104b68185610576565b93506104c6818560208601610666565b6104cf81610729565b840191505092915050565b6104e38161064f565b82525050565b6104f281610659565b82525050565b600060208201905061050d6000830184610492565b92915050565b6000602082019050818103600083015261052d81846104a1565b905092915050565b600060208201905061054a60008301846104da565b92915050565b600060208201905061056560008301846104e9565b92915050565b600081519050919050565b600082825260208201905092915050565b60006105928261064f565b915061059d8361064f565b9250827fffffffffffffffffffffffffffffffffffffffffffffffffffffffffffffffff038211156105d2576105d16106cb565b5b828201905092915050565b60006105e88261064f565b91506105f38361064f565b925082821015610606576106056106cb565b5b828203905092915050565b600061061c8261062f565b9050919050565b60008115159050919050565b600073ffffffffffffffffffffffffffffffffffffffff82169050919050565b6000819050919050565b600060ff82169050919050565b60005b83811015610684578082015181840152602081019050610669565b83811115610693576000848401525b50505050565b600060028204905060018216806106b157607f821691505b602082108114156106c5576106c46106fa565b5b50919050565b7f4e487b7100000000000000000000000000000000000000000000000000000000600052601160045260246000fd5b7f4e487b7100000000000000000000000000000000000000000000000000000000600052602260045260246000fd5b6000601f19601f8301169050919050565b61074381610611565b811461074e57600080fd5b50565b61075a8161064f565b811461076557600080fd5b5056fea2646970667358221220c4f94ea748c901687c421803ff4dfedd735c0f9ee359d3cf7343b2d58e1eaf2764736f6c63430008000033",
  "immutableReferences": {},
  "source": "// SPDX-License-Identifier: GPL-3.0\npragma solidity >=0.7.0 <0.9.0;\n\ncontract erc20{\n    event Transfer(address indexed from, address indexed to, uint tokens);\n    event Approval(address indexed tokenOwner, address indexed spender, uint tokens);\n\n    string  name;\n    string  symbol;\n    uint8   decimal;\n\n    mapping(address => uint256) balances;\n\n    mapping(address => mapping(address => uint256)) allowed;\n\n    uint256 totalSupply_ =1000;\n    constructor(string memory _name, string memory _symbol, uint8 _decimal){\n        balances[msg.sender] = totalSupply_;\n        name = _name;\n        symbol = _symbol;\n        decimal = _decimal;\n    }\n    function name1() public view returns (string memory) {\n        return name;\n    }\n    function symbol1() public view returns (string memory) {\n        return symbol;\n    }\n    function decimal1() public view returns (uint8) {\n        return decimal;\n    }\n    function balanceOf(address tokenOwner) public view returns(uint){\n        return balances[tokenOwner];\n    }\n    function transefer(address receiver, uint numTokens) public returns (bool){\n        require(numTokens <= balances[msg.sender]);\n         balances[msg.sender]-=numTokens;\n         balances[receiver]+=numTokens;\n         emit Transfer(msg.sender, receiver, numTokens);\n         return true;\n    }\n\n}",
  "sourcePath": "/home/deq/Desktop/nodeEther/contracts/erc20.sol",
  "compiler": {
    "name": "solc",
    "version": "0.8.0+commit.c7dfd78e.Emscripten.clang"
  },
  "schemaVersion": "3.4.4",
  "updatedAt": "2022-01-11T07:39:18.665Z",
  "devdoc": {
    "kind": "dev",
    "methods": {},
    "version": 1
  },
  "userdoc": {
    "kind": "user",
    "methods": {},
    "version": 1
  }
}